S01800006275696C642F6D6963617A2F6D61696E2E73726563E5
S11300000C9449010C9468010C9468010C946801E7
S11300100C9468010C9468010C9468010C946801B8
S11300200C9468010C9468010C9468010C946801A8
S11300300C9468010C9468010C9468010C94561299
S11300400C94DA1C0C9468010C9456140C946801FA
S11300500C94D2140C9468010C9468010C946801FB
S11300600C9468010C9425160C9404160C940F1629
S11300700C941A160C9438160C94E7150C94680119
S11300800C94F9150C9468010C946801000021107B
S1130090422063308440A550C660E77008812991EE
S11300A04AA16BB18CC1ADD1CEE1EFF13112100296
S11300B073325222B5529442F772D662399318833E
S11300C07BB35AA3BDD39CC3FFF3DEE36224433462
S11300D020040114E664C774A44485546AA54BB58E
S11300E028850995EEE5CFF5ACC58DD55336722636
S11300F011163006D776F6669556B4465BB77AA7DE
S113010019973887DFF7FEE79DD7BCC7C448E55881
S11301108668A7784008611802282338CCC9EDD92D
S11301208EE9AFF9488969990AA92BB9F55AD44AD5
S1130130B77A966A711A500A333A122AFDDBDCCB7D
S1130140BFFB9EEB799B588B3BBB1AABA66C877CA1
S1130150E44CC55C222C033C600C411CAEED8FFDCD
S1130160ECCDCDDD2AAD0BBD688D499D977EB66E75
S1130170D55EF44E133E322E511E700E9FFFBEEF1D
S1130180DDDFFCCF1BBF3AAF599F788F8891A981DF
S1130190CAB1EBA10CD12DC14EF16FE18010A100C9
S11301A0C230E3200450254046706760B9839893B9
S11301B0FBA3DAB33DC31CD37FE35EF3B102901219
S11301C0F322D2323542145277625672EAB5CBA585
S11301D0A89589856EF54FE52CD50DC5E234C32469
S11301E0A01481046674476424540544DBA7FAB759
S11301F09987B8975FE77EF71DC73CD7D326F236B9
S11302009106B01657667676154634564CD96DC9A4
S11302100EF92FE9C899E9898AB9ABA94458654808
S113022006782768C018E1088238A3287DCB5CDBF8
S11302303FEB1EFBF98BD89BBBAB9ABB754A545A58
S1130240376A167AF10AD01AB32A923A2EFD0FEDC4
S11302506CDD4DCDAABD8BADE89DC98D267C076CA8
S1130260645C454CA23C832CE01CC10C1FEF3EFF98
S11302705DCF7CDF9BAFBABFD98FF89F176E367EF8
S1130280554E745E932EB23ED10EF01E00081C181B
S1130290141011241FBECFEFD0E1DEBFCDBF11E09B
S11302A0A0E0B1E0E8ECF6E600E00BBF02C0079086
S11302B00D92AA30B107D9F719E0AAE0B1E001C064
S11302C01D92A238B107E1F70E948F310C94633379
S11302D00C9400008FB7F894992708958FBF089560
S11302E0282F9FB7F894E82FFF27EC5AFE4F808100
S11302F08F3F81F4E0917B09E21771F40BC02093E6
S1130300170904C0FF27EC5AFE4F208320937B0972
S113031020E007C025E005C0809117098F3F91F7C1
S1130320EECF892F99278FBF822F992708951F9386
S11303301FB7F89480917809882341F482E00E94E1
S11303407001882319F481E080937809812F99271B
S11303508FBF1F910895382FFA01422F273618F0C6
S113036082E090E008956683872F992785833387F9
S1130370218780910F0190911001892B19F085E05C
S113038090E008952FB7F894332785E08093120105
S113039010921301F0930E01E0930D0182E090E0BE
S11303A09093100180930F01109215011092140183
S11303B0445F409311012FBF8FB7F894282F332740
S11303C0809111068A3011F42FBF19C02FBF9FB737
S11303D0F89480918102882311F020E006C081E026
S11303E0809381021092820221E0892F99278FBF86
S11303F0222329F00E94970180E090E00895109252
S1130400100110920F0181E090E008957FB7F894F5
S113041062B72091340130913501409136015091F9
S1130420370106B601FE0FC081B792B7280F311D00
S1130430411D511D2F5F3F4F4F4F5F4F290F311DFE
S1130440411D511D04C0260F311D411D511D872F13
S113045099278FBFCA01B90108957727FC01E60FD8
S1130460F71F31976150704007C08081B901615016
S113047070403197882319F49B0177FFF6CFC901A7
S113048001960895282F80E090E0222331F0019610
S11304908830910511F02695F8CF089520E005C025
S11304A0FC01E20FF11D10822F5F2617C9F7089592
S11304B0EF92FF920F931F93CF93DF937C018B01F5
S11304C0483018F080E090E02CC088E0841B30E0D5
S11304D050E0C42FDD27682F77271FC0A52FBB2727
S11304E0F801EA0FFB1F8081E82FFF27AE0DBF1D27
S11304F0CF010C2E02C0880F991F0A94E2F7382B03
S11305003C93442311F430E007C0062E02C0F59555
S1130510E7950A94E2F73E2F5F5F5217F9F6832FAF
S11305209927DF91CF911F910F91FF90EF9008953C
S1130530FB015527DC01A40FB51F1197E40FF51F2C
S113054031974150504010C09C918081891718F414
S113055081E090E0089541505040119731979817E9
S113056018F48FEF9FEF089557FFEECF80E090E0EF
S113057008952F92CF93DF93DC01EB01FA0122233C
S113058019F480E090E012C02A9509902190021895
S11305900D92222339F02A950990219002080D9298
S11305A00C94C9022227221F822F9927DF91CF9111
S11305B02F9008950F931F93CF93DF93FC01822F05
S11305C0483018F080E090E032C028E0241B9927DE
S11305D0DB01A80FB91F1197E80FF91F319750E0FD
S11305E0042F1127C22FDD279C01215030401BC04E
S11305F08C91682F7727CB01002E02C095958795A3
S11306000A94E2F7582B5083442311F450E007C0B6
S11306100C2E02C0660F771F0A94E2F7562F215062
S113062030401197319737FFE3CF852F9927DF911A
S1130630CF911F910F9108950F931F938C0165E142
S11306400E944E0265E1C80145960E944E021F9128
S11306500F910895AC0120E00AC0FA01E20FF11DE8
S11306608081882319F080E090E008952F5F261799
S1130670A1F781E090E008952F923F924F925F920C
S11306806F927F928F929F92AF92BF92CF92DF929E
S1130690EF92FF920F931F93CF93DF93FC01469544
S11306A046951F92CF93DF93222433244424552468
S11306B06624772488249924AA24332794E04A952D
S11306C000E010E0099F090EDB01A00DB11DEB0154
S11306D0002E011A011619F020F00C9473030C94E7
S11306E03B040C94A904EE90DE90CE90BE90F99059
S11306F0BF9C8827000C111C881F200C311C481E2D
S113070030F4531E631E731E831E931EA31ECF9CC0
S11307108827000C111C881F300C411C581E28F41B
S1130720631E731E831E931EA31EDF9C8827000C6A
S1130730111C881F400C511C681E20F4731E831E5C
S1130740931EA31EEF9C8827000C111C881F500CBD
S1130750611C781E18F4831E931EA31EF990BF9C7F
S11307608827000C111C881F300C411C581E28F4CB
S1130770631E731E831E931EA31ECF9C8827000C2A
S1130780111C881F400C511C681E20F4731E831E0C
S1130790931EA31EDF9C8827000C111C881F500C7D
S11307A0611C781E18F4831E931EA31EEF9C8827D9
S11307B0000C111C881F600C711C881E10F4931E01
S11307C0A31EF990BF9C8827000C111C881F400CA5
S11307D0511C681E20F4731E831E931EA31ECF9CFF
S11307E08827000C111C881F500C611C781E18F4FB
S11307F0831E931EA31EDF9C8827000C111C881FD8
S1130800600C711C881E10F4931EA31EEF9C882795
S1130810000C111C881F700C811C981EA31EF990DB
S1130820BF9C8827000C111C881F500C611C781E6B
S113083018F4831E931EA31ECF9C8827000C111C42
S1130840881F600C711C881E10F4931EA31EDF9C6D
S11308508827000C111C881F700C811C981EA31E75
S1130860EF9C8827000C111C881F800C911CA81E6B
S113087013950C946803EE90DE90CE90BE90F990A0
S1130880BF9C200C311C431E30F4531E631E731E88
S1130890831E931EA31ECF9C8827000C111C881F47
S11308A0300C411C581E28F4631E731E831E931EB5
S11308B0A31EDF9C8827000C111C881F400C511CB0
S11308C0681E20F4731E831E931EA31EEF9C8827AC
S11308D0000C111C881F500C611C781E18F4831E18
S11308E0931EA31EF990CF9C400C511C631E20F450
S11308F0731E831E931EA31EDF9C8827000C111CED
S1130900881F500C611C781E18F4831E931EA31EAE
S1130910EF9C8827000C111C881F600C711C881E1A
S113092010F4931EA31EF990DF9C600C711C18F444
S1130930831E931EA31EEF9C8827000C111C881F86
S1130940700C811C981EA31EF990EF9C800C911CC6
S1130950A31E2192319241925192130124016A2CD7
S1130960772488249924AA24041719F003950C9455
S113097061030395102F141B949F090EDB01A00D36
S1130980B11D199FEB01C00DD11D002E011A0116D6
S113099019F020F00C94D0040C9498050C940606DD
S11309A0EE90DE90CE90BE90F990BF9C8827000C0C
S11309B0111C881F200C311C481E30F4531E631E6A
S11309C0731E831E931EA31ECF9C8827000C111C2C
S11309D0881F300C411C581E28F4631E731E831E8E
S11309E0931EA31EDF9C8827000C111C881F400C3B
S11309F0511C681E20F4731E831E931EA31EEF9CBD
S1130A008827000C111C881F500C611C781E18F4D8
S1130A10831E931EA31EF990BF9C8827000C111CF3
S1130A20881F300C411C581E28F4631E731E831E3D
S1130A30931EA31ECF9C8827000C111C881F400CFA
S1130A40511C681E20F4731E831E931EA31EDF9C7C
S1130A508827000C111C881F500C611C781E18F488
S1130A60831E931EA31EEF9C8827000C111C881F55
S1130A70600C711C881E10F4931EA31EF990BF9C79
S1130A808827000C111C881F400C511C681E20F480
S1130A90731E831E931EA31ECF9C8827000C111C5B
S1130AA0881F500C611C781E18F4831E931EA31E0D
S1130AB0DF9C8827000C111C881F600C711C881E89
S1130AC010F4931EA31EEF9C8827000C111C881F92
S1130AD0700C811C981EA31EF990BF9C8827000CE3
S1130AE0111C881F500C611C781E18F4831E931E61
S1130AF0A31ECF9C8827000C111C881F600C711C3E
S1130B00881E10F4931EA31EDF9C8827000C111C62
S1130B10881F700C811C981EA31EEF9C8827000C54
S1130B20111C881F800C911CA81E13950C94C504DD
S1130B30EE90DE90CE90BE90F990BF9C200C311CBC
S1130B40431E30F4531E631E731E831E931EA31E86
S1130B50CF9C8827000C111C881F300C411C581E88
S1130B6028F4631E731E831E931EA31EDF9C882716
S1130B70000C111C881F400C511C681E20F4731EAD
S1130B80831E931EA31EEF9C8827000C111C881F34
S1130B90500C611C781E18F4831E931EA31EF9903A
S1130BA0CF9C400C511C631E20F4731E831E931EA5
S1130BB0A31EDF9C8827000C111C881F500C611C8D
S1130BC0781E18F4831E931EA31EEF9C8827000C26
S1130BD0111C881F600C711C881E10F4931EA31E28
S1130BE0F990DF9C600C711C18F4831E931EA31EE5
S1130BF0EF9C8827000C111C881F700C811C981E08
S1130C00A31EF990EF9C800C911CA31E219231929B
S1130C1041925192130124016A2C77248824992447
S1130C20AA24042E000C001519F003950C94BA04A0
S1130C302192319241925192DF91CF911F90DF9195
S1130C40CF911F910F91FF90EF90DF90CF90BF90C5
S1130C50AF909F908F907F906F905F904F903F9058
S1130C602F9008952F923F924F925F926F927F92AE
S1130C708F929F92AF92BF92CF92DF92EF92FF92A8
S1130C800F931F93CF93DF93FC01822F99278370D7
S1130C909070322F36953695892B11F4832F02C02C
S1130CA0832F8F5F1F92CF93DF9322243324442416
S1130CB055246624772488249924AA24332794E08D
S1130CC08A9500E0EA01F88023961881099F090EAD
S1130CD0DB01A00DB11DEA01EE90DE90CE90BE9036
S1130CE0BF9C200C311C40F4431E30F4531E631E81
S1130CF0731E831E931EA31ECF9C300C411C38F41C
S1130D00531E28F4631E731E831E931EA31EDF9CB2
S1130D10400C511C30F4631E20F4731E831E931E7A
S1130D20A31EEF9C500C611C28F4731E18F4831E40
S1130D30931EA31EB19E500C611C28F4731E18F45C
S1130D40831E931EA31EC19E600C711C20F4831E7F
S1130D5010F4931EA31ED19E700C811C10F4931EDC
S1130D60A31EE19E800C911CA31E219231924192FC
S1130D705192130124016A2C772488249924AA24EB
S1130D80081719F003950C9466062192319241924A
S1130D905192DF91CF911F902C5F822F9927DF9181
S1130DA0CF911F910F91FF90EF90DF90CF90BF9064
S1130DB0AF909F908F907F906F905F904F903F90F7
S1130DC02F9008952F92CF93DF93DC01EB01FA016A
S1130DD0222319F480E090E012C02A950990219012
S1130DE0020C0D92222339F02A9509902190021CBD
S1130DF00D920C94F2062227221F822F9927DF914D
S1130E00CF912F9008952F923F924F925F926F92BD
S1130E108F929F92AF92BF92CF92DF92EF92FF9206
S1130E200F931F93CF93DF93EC01DB01FA01822F21
S1130E3065E00E941133782F0F921F92CF93DF93B6
S1130E402224332444245524662488249924AA245F
S1130E50BB24CC249927552765E07A95872F880FE2
S1130E6030E040E0369F060EA00DB11D1E910E919C
S1130E70FE90EE90DE902191D29E200C311C50F415
S1130E80451E40F4551E651E851E951EA51EB51EE5
S1130E90C51E951FE29E300C411C48F4551E38F4C3
S1130EA0651E851E951EA51EB51EC51E951FF29EA8
S1130EB0400C511C40F4651E30F4851E951EA51E81
S1130EC0B51EC51E951F029F500C611C38F4851E6B
S1130ED028F4951EA51EB51EC51E951F129F600CF5
S1130EE0811C30F4951E20F4A51EB51EC51E951F49
S1130EF02191D29E300C411C48F4551E38F4651ED5
S1130F00851E951EA51EB51EC51E951FE29E400C8E
S1130F10511C40F4651E30F4851E951EA51EB51E99
S1130F20C51E951FF29E500C611C38F4851E28F4D2
S1130F30951EA51EB51EC51E951F029F600C811C23
S1130F4030F4951E20F4A51EB51EC51E951F129FD4
S1130F50800C911C28F4A51E18F4B51EC51E951FFF
S1130F602191D29E400C511C40F4651E30F4851E24
S1130F70951EA51EB51EC51E951FE29E500C611C34
S1130F8038F4851E28F4951EA51EB51EC51E951F92
S1130F90F29E600C811C30F4951E20F4A51EB51E33
S1130FA0C51E951F029F800C911C28F4A51E18F4E1
S1130FB0B51EC51E951F129F900CA11C20F4B51ED2
S1130FC010F4C51E951F2191D29E500C611C38F45B
S1130FD0851E28F4951EA51EB51EC51E951FE29EEE
S1130FE0600C811C30F4951E20F4A51EB51EC51E90
S1130FF0951FF29E800C911C28F4A51E18F4B51EB2
S1131000C51E951F029F900CA11C20F4B51E10F460
S1131010C51E951F129FA00CB11C10F4C51E951F70
S11310202191D29E600C811C30F4951E20F4A51EE3
S1131030B51EC51E951FE29E800C911C28F4A51EAA
S113104018F4B51EC51E951FF29E900CA11C20F429
S1131050B51E10F4C51E951F029FA00CB11C10F400
S1131060C51E951F129FB00CC11C951F431719F084
S113107043950C9436072992399249925992699270
S1131080140125016C2C892E9924AA24BB24CC2478
S11310909927369F060EE019F109371719F0339591
S11310A00C9431073395E60FF51F769F060EA00DBD
S11310B0B11D432F471B1E910E91FE90EE90DE90C2
S11310C02191D29E200C311C50F4451E40F4551E33
S11310D0651E851E951EA51EB51EC51E951FE29E86
S11310E0300C411C48F4551E38F4651E851E951EAF
S11310F0A51EB51EC51E951FF29E400C511C40F442
S1131100651E30F4851E951EA51EB51EC51E951FB1
S1131110029F500C611C38F4851E28F4951EA51EF0
S1131120B51EC51E951F129F600C811C30F4951EC0
S113113020F4A51EB51EC51E951F2191D29E300C0C
S1131140411C48F4551E38F4651E851E951EA51EC7
S1131150B51EC51E951FE29E400C511C40F4651E31
S113116030F4851E951EA51EB51EC51E951FF29E44
S1131170500C611C38F4851E28F4951EA51EB51E5E
S1131180C51E951F029F600C811C30F4951E20F42F
S1131190A51EB51EC51E951F129F800C911C28F418
S11311A0A51E18F4B51EC51E951F2191D29E400C94
S11311B0511C40F4651E30F4851E951EA51EB51EF7
S11311C0C51E951FE29E500C611C38F4851E28F440
S11311D0951EA51EB51EC51E951FF29E600C811C92
S11311E030F4951E20F4A51EB51EC51E951F029F42
S11311F0800C911C28F4A51E18F4B51EC51E951F5D
S1131200129F900CA11C18F4B51EC51E951F2191A8
S1131210D29E500C611C38F4851E28F4951EA51E20
S1131220B51EC51E951FE29E600C811C30F4951EF0
S113123020F4A51EB51EC51E951FF29E800C911CA0
S113124028F4A51E18F4B51EC51E951F029F900C08
S1131250A11C20F4B51E10F4C51E951F129FA00CEE
S1131260B11C10F4C51E951F2191D29E600C811CE7
S113127030F4951E20F4A51EB51EC51E951FE29ED2
S1131280800C911C28F4A51E18F4B51EC51E951FCC
S1131290F29E900CA11C20F4B51E10F4C51E951FDF
S11312A0029FA00CB11C10F4C51E951F129FB00C18
S11312B0C11C951F471719F043950C945B0829929C
S11312C03992499259926992140125016C2C892E04
S11312D09924AA24BB24CC249927082E031A069EF9
S11312E0E019F109060EA00DB11D381719F0339558
S11312F00C94590829923992499259926992DF9132
S1131300CF911F900F90DF91CF911F910F91FF907C
S1131310EF90DF90CF90BF90AF909F908F906F90A1
S11313205F904F903F902F900895DC01FC0191E075
S11313308181882319F080E090E008959F5F3196C1
S11313409531B1F720E030E08C91813011F421E047
S113135030E0C90108950F931F93CF93DF938C015D
S1131360772761507040A0E0B0E03327EA01FB0129
S1131370E80FF91F06C0899180836150704031974E
S11313801196A217B30711F077FFF5CFF801E60F16
S1131390F71F04C0108261507040319777FFFACF75
S11313A0DF91CF911F910F9108950F931F93CF93C6
S11313B0DF93EC010E942D02082F882319F420E00A
S11313C030E010C01127C00FD11F219788810E94DF
S11313D04202980143E0220F331F4A95E1F7089730
S11313E0280F391FC901DF91CF911F910F910895E3
S11313F04FB7F89480917B0290917C029C01220F5C
S1131400331F97FF04C08BE090E128273927C901D7
S1131410019690937C0280937B0220914D01309140
S11314204E0182279327242F33272FBF0895FC01D1
S1131430892B19F481E090E00895148A158A168A9C
S1131440178A108E118E128E138E158E148E81E0D3
S113145093E2A5E4B7E680839183A283B38389E80A
S11314609BEAADECBFEE84839583A683B7838EEFAE
S11314709CEDAAEBB8E980879187A287B38786E7BA
S113148094E5A2E3B0E184879587A687B78780EFC8
S113149091EEA2EDB3EC808B918BA28BB38BE25ACD
S11314A0FF4F119211921182108280E090E0089512
S11314B02F923F924F925F926F927F928F929F9260
S11314C0AF92BF92CF92DF92EF92FF920F931F934E
S11314D0CF93DF93CDB7DEB7CC57D0400FB6F89497
S11314E0DEBF0FBECDBFED969FAF8EAFED97FC0173
S11314F07E96BE016F5F7F4F41E4C42ED12CCC0E8B
S1131500DD1EE080FF24002711271E2D0027FF2465
S1131510EE2481819927AA27BB27DC0199278827F4
S1131520E82AF92A0A2B1B2B228133274427552723
S1131530542F432F322F222783819927AA27BB2791
S1131540E82AF92A0A2B1B2B2E293F29402B512B41
S1131550DB012D933D934D935D93BD013496AC1502
S1131560BD0579F6ED96AEADBFADED97ED90FD906E
S11315700D911C911397A296ECAEFDAE0EAF1FAF6A
S1131580A297FD01A480B580C680D780E084F18451
S113159002851385EA96ECAEFDAE0EAF1FAFEA9757
S11315A0E484F58406851785E696ECAEFDAE0EAFB1
S11315B01FAFE697E088F18802891389A2962CACC4
S11315C03DAC4EAC5FACA29722961FAE2297EB9631
S11315D01FAEEB978EC0EB96FFADEB97FF70229694
S11315E0FFAF2297EB960FADEB97003108F45FC085
S11315F0EF2FFF278F01000F111F000F111F21E094
S113160030E02C0F3D1F020F131FBF016E5F7F4F91
S11316106F707070660F771F660F771F620F731FEE
S11316203D96DF01AF70B070AA0FBB1FAA0FBB1F9E
S1131630A20FB31F3597EF70F070EE0FFF1FEE0F80
S1131640FF1FE20FF31F8D919D910D90BC91A02D72
S1131650208131814281538182279327A427B52792
S1131660F801208131814281538182279327A42765
S1131670B527FB0120813181428153818227932741
S1131680A427B5279C01AD01220F331F441F551F0A
S11316908827B7FD83959927AA27BB27822B932BED
S11316A0A42BB52BF80180839183A283B383E696A0
S11316B0ECACFDAC0EAD1FADE697EA962CAD3DAD9E
S11316C04EAD5FADEA97E6962CAF3DAF4EAF5FAF40
S11316D0E697620151011301240126968CAD9DAD5C
S11316E0AEADBFAD2697EA968CAF9DAFAEAFBFAFA0
S11316F0EA97EA966CAC7DAC8EAC9FACEA976A2014
S11317007B208C209D20D601C50180959095A095C5
S1131710B095E6962CAD3DAD4EAD5FADE697822318
S11317209323A423B523682A792A8A2A9B2A2296FA
S11317303FAD2297E32FFF27EE0FFF1FEE0FFF1F92
S113174041E050E04C0F5D1FE40FF51F8081918153
S1131750A281B381680E791E8A1E9B1ED201C1012B
S11317607BE1B695A795979587957A95D1F7A201D0
S1131770910165E0220F331F441F551F6A95D1F76D
S1131780822B932BA42BB52B8E0D9F1DA01FB11F55
S113179087569648AD47B54A680E791E8A1E9B1E29
S11317A0D601C5011EE1880F991FAA1FBB1F1A95F8
S11317B0D1F7F2E0D694C794B794A794FA95D1F7E9
S11317C08A299B29AC29BD2926968CAF9DAFAEAF43
S11317D0BFAF2697EB969FADEB979F5FEB969FAFBE
S11317E0EB97943109F0F7CE66966CAE7DAE8EAE73
S11317F09FAE6697EA96ECACFDAC0EAD1FADEA97D2
S1131800E296ECAEFDAE0EAF1FAFE297E6960CADDE
S11318101DAD2EAD3FADE6972E960CAF1DAF2EAF8E
S11318203FAF2E97EB966FADEB976F7077278B01D9
S11318300E5F1F4F0F701070000F111F000F111F4C
S113184021E030E02C0F3D1F020F131FDB011D961A
S1131850AF70B070AA0FBB1FAA0FBB1FA20FB31F9C
S1131860FB013896EF70F070EE0FFF1FEE0FFF1FB5
S1131870E20FF31F8D919D910D90BC91A02D2081BD
S113188031814281538182279327A427B527660F8C
S1131890771F660F771F41E050E04C0F5D1F640F08
S11318A0751FFB0120813181428153818227932757
S11318B0A427B527F80120813181428153818227F1
S11318C09327A427B5277C018D01EE0CFF1C001F74
S11318D0111F8827B7FD83959927AA27BB27E82AD4
S11318E0F92A0A2B1B2BDB01ED92FD920D931C931D
S11318F013972696ACACBDACCEACDFAC2697A22435
S1131900B324C424D524E2962CAD3DAD4EAD5FADD9
S1131910E297A226B326C426D52666968CAD9DAD45
S1131920AEADBFAD66977BE1B695A79597958795C4
S11319307A95D1F766962CAD3DAD4EAD5FAD669709
S113194065E0220F331F441F551F6A95D1F7822B80
S1131950932BA42BB52B2E962CAD3DAD4EAD5FAD88
S11319602E97820F931FA41FB51FA80EB91ECA1E5F
S1131970DB1E81EA9BEEA9EDBEE6A80EB91ECA1EC7
S1131980DB1EAE0CBF1CC01ED11E42013101BEE1E4
S1131990660C771C881C991CBA95D1F7A2E0569462
S11319A0479437942794AA95D1F7622873288428FA
S11319B09528EB969FADEB979F5FEB969FAFEB97C8
S11319C0E296ECACFDAC0EAD1FADE2972E96ECAEFC
S11319D0FDAE0EAF1FAF2E9726968CAD9DADAEAD6E
S11319E0BFAD269766962CAC3DAC4EAC5FAC66970B
S11319F0EB960FADEB970832F9F46A96ACAEBDAE38
S1131A00CEAEDFAE6A97A6962CAE3DAE4EAE5FAEBE
S1131A10A697AE968CAF9DAFAEAFBFAFAE97E29632
S1131A202CAD3DAD4EAD5FADE29762962CAF3DAFB0
S1131A304EAF5FAF629721C06696ACAEBDAECEAE80
S1131A40DFAE669726966CAE7DAE8EAE9FAE2697C1
S1131A50E2968CAF9DAFAEAFBFAFE297E3CE6A968E
S1131A60ACAEBDAECEAEDFAE6A9742013101AE96EA
S1131A708CAF9DAFAEAFBFAFAE97EB966FADEB97AC
S1131A806F7077278B010E5F1F4F0F701070000F60
S1131A90111F000F111F41E050E04C0F5D1F040F98
S1131AA0151FDB011D96AF70B070AA0FBB1FAA0FE4
S1131AB0BB1FA40FB51FFB013896EF70F070EE0F3B
S1131AC0FF1FEE0FFF1FE40FF51F8D919D910D90E9
S1131AD0BC91A02D2081318142815381822793279B
S1131AE0A427B527660F771F660F771FE1E0F0E0A4
S1131AF0EC0FFD1F6E0F7F1FFB012081318142819E
S1131B00538182279327A427B527F80120813181A7
S1131B104281538182279327A427B5277C018D0115
S1131B20EE0CFF1C001F111F8827B7FD8395992712
S1131B30AA27BB27E82AF92A0A2B1B2BDB01ED92E3
S1131B40FD920D931C931397AE96ACACBDACCEAC8A
S1131B50DFACAE97A628B728C828D928A6962CADFE
S1131B603DAD4EAD5FADA697A222B322C422D522CD
S1131B70AE968CAD9DADAEADBFADAE97862197212F
S1131B80A821B921A82AB92ACA2ADB2A6A968CADC7
S1131B909DADAEADBFAD6A977BE1B695A795979520
S1131BA087957A95D1F76A962CAD3DAD4EAD5FAD74
S1131BB06A9765E0220F331F441F551F6A95D1F7BA
S1131BC0822B932BA42BB52B62962CAD3DAD4EAD41
S1131BD05FAD6297820F931FA41FB51FA80EB91E95
S1131BE0CA1EDB1E8CED9CEBABE1BFE8A80EB91E50
S1131BF0CA1EDB1EAE0CBF1CC01ED11EA6962CAC8A
S1131C003DAC4EAC5FACA6974EE1220C331C441C99
S1131C10551C4A95D1F7A696ECACFDAC0EAD1FADA4
S1131C20A69732E016950795F794E7943A95D1F77D
S1131C302E283F28402A512AEB960FADEB970F5FD1
S1131C40EB960FAFEB97AE962CAD3DAD4EAD5FADC1
S1131C50AE9762962CAF3DAF4EAF5FAF6297D401A3
S1131C60C3016A96ECACFDAC0EAD1FAD6A97A696A7
S1131C70ECAEFDAE0EAF1FAFA697EB960FADEB9794
S1131C800C3309F0ECCE6E96ACAEBDAECEAEDFAE8C
S1131C906E976A962CAD3DAD4EAD5FAD6A97AA9630
S1131CA02CAF3DAF4EAF5FAFAA97AE968CAD9DAD56
S1131CB0AEADBFADAE972A968CAF9DAFAEAFBFAF02
S1131CC02A97EB966FADEB976F7077278B010E5FBA
S1131CD01F4F0F701070000F111F000F111FA1E094
S1131CE0B0E0AC0FBD1F0A0F1B1FDB011D96AF70C8
S1131CF0B070AA0FBB1FAA0FBB1FE1E0F0E0EC0F0E
S1131D00FD1FAE0FBF1FFB013896EF70F070EE0F92
S1131D10FF1FEE0FFF1F51E0E52EF12CEC0EFD1E10
S1131D20EE0DFF1D8D919D910D90BC91A02D2081F4
S1131D3031814281538182279327A427B527660FD7
S1131D40771F660F771F6E0D7F1DFB012081318188
S1131D504281538182279327A427B527F801208144
S1131D6031814281538182279327A427B5277C019F
S1131D708D01EE0CFF1C001F111F8827B7FD8395F2
S1131D809927AA27BB27E82AF92A0A2B1B2BDB0150
S1131D90ED92FD920D931C931397AA96ACACBDAC37
S1131DA0CEACDFACAA97A224B324C424D524A624A1
S1131DB0B724C824D9246E968CAD9DADAEADBFAD0D
S1131DC06E97FBE1B695A79597958795FA95D1F708
S1131DD06E962CAD3DAD4EAD5FAD6E97E5E0220F36
S1131DE0331F441F551FEA95D1F7822B932BA42B45
S1131DF0B52B2A962CAD3DAD4EAD5FAD2A97820F23
S1131E00931FA41FB51FA80EB91ECA1EDB1E86EDA4
S1131E1091ECA2E6BAECA80EB91ECA1EDB1EAE0CEB
S1131E20BF1CC01ED11EAA962CAD3DAD4EAD5FADFC
S1131E30AA977EE1220F331F441F551F7A95D1F7CD
S1131E40AA96ECACFDAC0EAD1FADAA9762E0169558
S1131E500795F794E7946A95D1F72E293F29402BEB
S1131E60512BEB960FADEB970F5FEB960FAFEB9704
S1131E702A966CAE7DAE8EAE9FAE2A97D201C1017A
S1131E806E96ECACFDAC0EAD1FAD6E97AA96ECAEA3
S1131E90FDAE0EAF1FAFAA97EB960FADEB970035D3
S1131EA059F06E96ACAEBDAECEAEDFAE6E971901F4
S1131EB02A013C014D0105CFA2968CAD9DADAEAD7E
S1131EC0BFADA2978A0D9B1DAC1DBD1DED96EEAD59
S1131ED0FFADED9780839183A283B3838481958141
S1131EE0A681B7816E96ECACFDAC0EAD1FAD6E97BE
S1131EF08E0D9F1DA01FB11F84839583A683B78376
S1131F0080859185A285B385820F931FA41FB51F79
S1131F1080879187A287B38784859585A685B785B1
S1131F20820D931DA41DB51D84879587A687B78749
S1131F3080899189A289B389860D971DA81DB91D31
S1131F40808B918BA28BB38B158E148EC458DF4F6C
S1131F500FB6F894DEBF0FBECDBFDF91CF911F91B6
S1131F600F91FF90EF90DF90CF90BF90AF909F9034
S1131F708F907F906F905F904F903F902F90089537
S1131F80AF92BF92CF92DF92EF92FF920F931F9383
S1131F90CF93DF93EC016B0179018A01211531059F
S1131FA04105510519F4AA24BB2473C0892B09F4F3
S1131FB06DC0672B09F46AC0C25ADF4F88819981CA
S1131FC0CE55D040FE01E05AFF4F892B41F083E00B
S1131FD090E09183808363E0A62EB12C5AC0A08048
S1131FE0B180A114B104D1F154C08C8D9D8DFC013C
S1131FF0EC0FFD1FD6012C91268F01969D8F8C8F9F
S11320008C899D89AE89BF890896A11DB11D8C8BD1
S11320109D8BAE8BBF8B0097A105B105A1F4888D74
S1132020998DAA8DBB8D0196A11DB11D888F998FA5
S1132030AA8FBB8F0097A105B10529F481E090E038
S1132040FA01918380838C8D9D8D8034910519F4E0
S1132050CE010E94580A0894C11CD11C0894E108BE
S1132060F10801091109FFEFEF16FFEFFF06FFEF7B
S11320700F07FFEF1F0769F0AE01405A5F4FDA0107
S11320808D919C91892B09F4B0CF03C051E0A52E0A
S1132090B12CC501DF91CF911F910F91FF90EF906B
S11320A0DF90CF90BF90AF900895EF92FF920F937F
S11320B01F93CF93DF93EC018B01892B09F4D1C0DB
S11320C0672B09F4CEC0C05ADF4FE880F980C056B0
S11320D0D040E114F10409F0C7C0C25ADF4F88812F
S11320E09981CE55D040892B09F08FC08C8D9D8D60
S11320F0FC01EC0FFD1F9C012F5F3F4FC89710F1AF
S113210080E8868F3D8F2C8F07C0FC01EC0FFD1FEC
S1132110168E01969D8F8C8F8C8D9D8D80349105AC
S1132120A0F3CE010E94580A07C0FC01EC0FFD1F6A
S1132130168E01969D8F8C8F8C8D9D8D8833910585
S1132140A0F311C080E8868F3D8F2C8F07C0FC015F
S1132150EC0FFD1F168E01969D8F8C8F8C8D9D8D9F
S113216088339105A0F3288D398D4A8D5B8D852F99
S11321709927AA27BB27CA5ADF4F8993CA01AA27DE
S1132180BB278993232F342F452F55272883C855E0
S1132190D040888DC75ADF4F8883C955D0402C89D9
S11321A03D894E895F89852F9927AA27BB27C65A5F
S11321B0DF4F8993CA01AA27BB278993232F342F82
S11321C0452F55272883CC55D0408C89C35ADF4FDF
S11321D08883CD55D040CE010E94580AFE0180E08C
S11321E0168E8F5F31968034D9F71C8A1D8A1E8A19
S11321F01F8A188E198E1A8E1B8EC25ADF4F81E0E9
S113220090E099838883CE55D04040E050E06FEF52
S11322107FEFE42FE695E695FF27EE0FFF1FEE0F05
S1132220FF1FEC0FFD1F9B0123703070A3E0220FF2
S1132230331FAA95E1F780819181A281B38104C003
S1132240B695A795979587952A95D2F7F801819326
S11322508F014F5F5F4F615070404431510521F051
S1132260D8CF71E0E72EF12CC701DF91CF911F91F8
S11322700F91FF90EF900895CF93DF93EC01E22F3D
S1132280FF27319720E030E07727DC01E40FF51FCA
S113229005C0808131978D932F5F3F4F26173707F5
S11322A019F0E417F507ACF7FE01E20FF31F03C0C2
S11322B011922F5F3F4F26173707D0F3DF91CF914D
S11322C00895809111068A3021F480916001843050
S11322D021F081E080930A01089584E00E94700156
S11322E010920A0108952FB7F89433278CB95E9A97
S11322F02FBF0895FC016115710519F481E090E088
S1132300089580917D0290917E02892B19F085E0D9
S113231090E0089570930D0960930C09F0937E0288
S1132320E0937D02109262011092610181E080933A
S113233063015E9A569A808121E030E03093620115
S1132340209361010E94731180E090E008958FB79B
S1132350F894992720911B012E7F20931B012EE7CF
S113236020935C018FBF61E070E08CE591E00E94F6
S11323707A1199270895DF92EF92FF920F931F939A
S11323808FB7F894282F3327D22E91B782B746B748
S1132390981711F041FF02C02FBF68C08091F90463
S11323A08823D1F10E940602E0904106F090420693
S11323B0009143061091440620914F013091500141
S11323C040915101509152016E197F09800B910B7C
S11323D0621773078407950728F01092F90486EEB4
S11323E071E01CC02E0D3F1D401F511F8091340110
S11323F090913501A0913601B0913701281B390B1A
S11324004A0B5B0B273E31054105510528F4822F09
S1132410223018F482E001C086EE70E0682F61502B
S113242000B601FCFDCF82B7681709F46F5F2091F5
S11324303401309135014091360150913701DA0170
S1132440C9010196A11DB11D860F911DA11DB11DCC
S113245082179307A407B50710F4622F609561BF34
S1132460DFBE772319F080E00E9470011F910F9165
S1132470FF90EF90DF900895AFB7F894BB27E1E0A9
S1132480E093F904609341067093420680934306F7
S11324909093440620934F0130935001409351018F
S11324A050935201AFBF0E94BB1108951F920F9227
S11324B00FB60F9211242F933F934F935F936F9313
S11324C07F938F939F93AF93BF93EF93FF9383B7C0
S11324D083BF00B600FCFDCF81B799270196AA27D8
S11324E0BB27209134013091350140913601509140
S11324F03701280F391F4A1F5B1F20933401309383
S11325003501409336015093370178940E94BB11F2
S1132510FF91EF91BF91AF919F918F917F916F91B7
S11325205F914F913F912F910F900FBE0F901F908D
S11325301895ECE8F0E06927660FF11DE60FF11D30
S1132540C895982F802D3196C89590250895982F79
S113255080911601882389F5992379F531E0309328
S11325601601809102018093170120910B01822FA3
S11325708170809353018091070190910801909399
S113258019018093180180910C0180931A0132275C
S11325903170267EE32FFF27EE0FFF1FED5FFE4F06
S11325A0808191819093080180930701232B2093CC
S11325B00B0187E00E947001089580910B0180FF58
S11325C002C08B7F01C08D7F80930B0108950F9310
S11325D01F93082F162F809160018130D9F081302C
S11325E038F0823009F44AC0833009F028C159C058
S11325F0002309F458C1109206091092050910929B
S1132600400610921209109264011092050510926E
S1132610040539C1002309F046C180910405909155
S113262005050E949912909305058093040582E0A4
S11326308093600110931209143409F000C125C17C
S11326408695869503C080910B018695817009F06B
S1132650F6C080910B01992311F0846001C082605F
S113266080930B0180910B01877E886080930B011E
S113267010920C018FEF8093020115C1002309F021
S1132680DEC06093640180910405909105050E9469
S11326909912909305058093040583E0809360016B
S11326A002C1809140068F3F09F4C9C0002309F498
S11326B061C0823008F4C3C0E0910509EE2309F437
S11326C0EBC04E2F4150E42FFF27EB5FF64F828182
S11326D09927382F2227442311F4E2E002C0E42F83
S11326E0E150FF27EB5FF64F82819927282B392B86
S11326F080910405909105052817390709F09FC0BA
S113270080E00E94A712309164018091FA04209124
S1132710FB04982F9F5F963008F090E0921771F0B9
S1132720E82FFF27E650FB4F32838F5F8093FA0434
S1132730863010F01092FA040E9497011092060954
S11327401092050994E09093600110924006109253
S113275012091092640110920505109204058091EB
S11327601B018D7F80931B0180910A01882309F44A
S11327709AC084C0823008F44EC0E0910609FF2755
S1132780EB5FF64F8281482F5527342F20910B01A0
S1132790822F869586958695837099278130910539
S11327A019F00297F9F40EC0277E206120930B01E3
S11327B0442311F485E001C080E080930C01309340
S11327C0020110C080910C018E3760F4E091070182
S11327D0F0910801E80FF11D408380910C018F5F97
S11327E080930C0180910609E82FFF27EB5FF64FD9
S11327F062818F5F80930609833010F0109206097E
S1132800772780910405909105050E949912909371
S113281005058093040580910509E82FFF27EB5FE8
S1132820F64F12838F5F80930509833010F0109266
S11328300509809140068F5F8093400634C0109252
S113284006091092050914E01093600110924006E5
S11328501092120910926401109205051092040559
S113286080911B018D7F80931B0181E00E94A71240
S113287080910A01882329F0109360010E9461115C
S113288012C0002381F081E009CF80910B01982FC1
S1132890917080FDD5CED7CE809109099927382F24
S11328A0222742E01CCF1F910F9108951F920F928F
S11328B00FB60F9211242F933F934F935F936F930F
S11328C07F938F939F93AF93BF93EF93FF935F9BFC
S11328D03DC06CB1E0910605F09107053097F9F021
S11328E08091760990917709E80FF91F608301962A
S11328F0909377098093760920917E0930917F091E
S11329008217930718F1109207051092060580911B
S113291010068330D9F057981092100617C06E37FE
S113292019F460E081E010C080911B016D3721F43F
S1132930826080931B010AC081FF05C08D7F809354
S11329401B0180E2682780E00E94E712FF91EF916B
S1132950BF91AF919F918F917F916F915F914F91B3
S11329603F912F910F900FBE0F901F901895982FA5
S11329708D57823068F480911B01816080931B0124
S113298080E2892780933F068DE780935C0102C033
S113299090935C0161E070E08CE591E00E947A1113
S11329A09927089578941F920F920FB60F921124CD
S11329B0FF920F931F932F933F934F935F936F93C4
S11329C07F938F939F93AF93BF93CF93DF93EF93B3
S11329D0FF93209161013091620180910C099091E3
S11329E00D092817390780F4E0917D02F0917E02E9
S11329F0E20FF31F80812F5F3F4F309362012093DA
S1132A0061010E947311CDC010927E0210927D026A
S1132A10109263015698FFB6F89480911B0180FFD1
S1132A200EC08E7F80931B0180913F0680935C01D2
S1132A3061E070E08CE591E00E947A11AFC0809172
S1132A401106843009F48CC0853040F4823021F1C1
S1132A508330B8F5813009F09CC00DC0863009F48C
S1132A608DC0863008F483C0873009F48EC0883066
S1132A7009F08FC091C080917A020E94B714082F88
S1132A8083E08093110660917A0280917C09909191
S1132A907D090E94991210C080911E090E94B714EA
S1132AA0082F83E08093110660911E0980917C09B0
S1132AB090917D090E94991290937D0980937C09DD
S1132AC066C0E0910805FF27EE0FFF1FE058FD4F99
S1132AD080810E94B714082F10910805C12FDD27AB
S1132AE0FE01EE0FFF1FE058FD4F608180917C09CD
S1132AF090917D090E94991290937D0980937C099D
S1132B00209179022F5F20937902113039F5809159
S1132B101201E0910D01F0910E01E80FF11DE08129
S1132B208F5F8093120190911101981730F482E025
S1132B308093810240E050E002C04E2F5527DE0111
S1132B40AA0FBB1FFD01E158FD4F8081823031F097
S1132B502F3F21F0A058BD4F4C9319C084E012C000
S1132B6080917C090E94B714082F85E00BC08091E6
S1132B707D090E94B714082F86E004C00E94A711A3
S1132B80082F87E08093110602C088E003C0002369
S1132B9029F089E0809311060E9497018F2D9927CF
S1132BA08FBFFF91EF91DF91CF91BF91AF919F9133
S1132BB08F917F916F915F914F913F912F911F91D1
S1132BC00F91FF900F900FBE0F901F9018951F92BA
S1132BD00F920FB60F9211248F9380919B0087FF61
S1132BE002C080919C008F910F900FBE0F901F9098
S1132BF0189578941F920F920FB60F9211240F908C
S1132C000FBE0F901F90189578941F920F920FB6D5
S1132C100F9211240F900FBE0F901F901895789467
S1132C201F920F920FB60F9211240F900FBE0F90A8
S1132C301F90189578941F920F920FB60F9211243B
S1132C400F900FBE0F901F90189578941F920F92BB
S1132C500FB60F9211248F939F93809180009091CF
S1132C6081009F918F910F900FBE0F901F90189528
S1132C7078941F920F920FB60F9211242F933F93C3
S1132C808F939F932FB7F8943327809102059091E7
S1132C900305019690930305809302052FBF9F912E
S1132CA08F913F912F910F900FBE0F901F90189509
S1132CB02F923F924F925F926F927F928F929F9248
S1132CC0AF92BF92CF92DF92EF92FF920F931F9336
S1132CD0CF93DF93CDB7DEB7CA58D0400FB6F89480
S1132CE0DEBF0FBECDBF6C01C857DF4F6883C85825
S1132CF0D0408A0150930F0640930E060E942D0285
S1132D00F80184A7CE018C96C757DF4F9983888337
S1132D10C958D0408BE2C757DF4FE881F981C958C1
S1132D20D040482F11924A95E9F7E0910E06F091B0
S1132D300F0611928A95E9F720900E0630900F063F
S1132D40F10184A5E82FFF27EE0FFF1FEC0FFD1FF5
S1132D5081E084A7F10104A5C857DF4F6881C858F2
S1132D60D040C6010E942D024C01009709F41FC1F6
S1132D70702E770C7394F601E80FF91F3197808158
S1132D800E9442027C01CB57DF4F8882C558D04055
S1132D9047E5A42EB12CAC0EBD1E682DC5010E94C2
S1132DA04E02472C552408E010E00E191F09CA579B
S1132DB0DF4F0883C658D040272D402FBE01645DE5
S1132DC07F4FC5010E945802F501E40DF51D808373
S1132DD0282D402FB601CE0146960E945802FE01CE
S1132DE0E80DF91DE589C957DF4FE883C758D0407E
S1132DF02114310421F0672DC1010E944E024818AC
S1132E005908C101840D951DCD57DF4F99838883DF
S1132E10C358D0403501640C751C6201C80CD91C20
S1132E20AC0CBD1CA7C0C957DF4F9881C758D04010
S1132E309F3F39F4FE01E95AFF4FEC0DFD1DE08080
S1132E401EC0F50180819927982F882722915F0160
S1132E500894A11CB11C3327C957DF4FF881C75808
S1132E60D040FF5F6F2F7727F150C957DF4FF883AA
S1132E70C758D040822B932B0E941D33E62EFE01AF
S1132E80E95AFF4FEC0DFD1D3081EE2019F480E06E
S1132E9090E019C0F30120E0DE015696AD01480D23
S1132EA0511D0CC080819D911F92821B882F20E0B0
S1132EB0221FE99E8019211D1F908193A417B50735
S1132EC089F7822F9927FE01E95AFF4FEC0DFD1D6A
S1132ED0381B308317C0E3948E01095A1F4F0C0D21
S1132EE01D1DF801F080CB57DF4F2881C558D04015
S1132EF0AE014A5E5F4FB301C3010E94B902F81AE2
S1132F00F801F082FE01E95AFF4FEC0DFD1D8081AE
S1132F10882309F7CB57DF4F4881C558D040BE01FD
S1132F206A5E7F4FC3010E94980297FFD4CF211499
S1132F30310439F0CD57DF4FE881F981C358D040CF
S1132F40E082089441085108CD57DF4F8881998168
S1132F50C358D0400197CD57DF4F99838883C35816
S1132F60D0400894610871080894C108D1080894F5
S1132F70A108B10857FE57CFC857DF4F6881C8581A
S1132F80D0408E010F5F1F4FC8010E944E02CB57E5
S1132F90DF4F2881C558D040CA57DF4F4881C658F3
S1132FA0D040BE01695A7F4FC8010E94DA020091E5
S1132FB00E0610910F066BE2C8010E942D02F80163
S1132FC083A765E002C02F5F23A7E0910E06F0916E
S1132FD00F0623A5822F0E9411339923A1F7C65708
S1132FE0DF4F0FB6F894DEBF0FBECDBFDF91CF9198
S1132FF01F910F91FF90EF90DF90CF90BF90AF9013
S11330009F908F907F906F905F904F903F902F9004
S113301008954F925F927F928F929F92AF92BF9248
S1133020CF92DF92EF92FF920F931F93CF93DF9390
S1133030CDB7DEB7CF5AD0400FB6F894DEBF0FBE7F
S1133040CDBF2C015B017A014901702EFE01E45BC6
S1133050FF4F84E0801798F4802F9927880F991FD9
S113306044275527481B590B465C5F4FE80FF91F4F
S113307060E070E0CF0108970E945C3304C082E3F3
S113308011928A95E9F77CE4C72ED12CCC0EDD1E73
S1133090272DA701B501C6010E940307A72CBB2455
S11330A07E010894E11CF11CA501B401C7010E9432
S11330B0533349E150E04A195B0960E070E0C7010D
S11330C08A0D9B1D0E945C33E0910E06F0910F0661
S11330D084A5B601680F711D615070408E01065EB3
S11330E01F4F23A5AF01C8010E940307E0910E06FC
S11330F0F0910F0684A5080F111D0F5F1F4F6EE797
S1133100862E912C8C0E9D1E23A5A701B801C40107
S11331100E940307E0910E06F0910F0684A59927FB
S113312001E310E0A801481B590B880D991D60E0CC
S113313070E001960E945C33E0910E06F0910F0658
S113314084A59927081B190B8C0D9D1DA80160E00F
S113315070E001960E945C33E0910E06F0910F0638
S113316044A54F5FB401C6010E94980297FF0AC0AC
S1133170E0910E06F0910F0684A5F601E80FF11D0B
S113318081E08183E0910E06F0910F0624A52E5F65
S1133190A401B601C60104C0272DA701B801C801C6
S11331A00E94B9028E01045B1F4F472D7E010894D3
S11331B0E11CF11CB701C8010E94980297FFECCFF3
S11331C0A501B801C2010E945333C155DF4F0FB6A8
S11331D0F894DEBF0FBECDBFDF91CF911F910F9149
S11331E0FF90EF90DF90CF90BF90AF909F908F9023
S11331F07F905F904F9008953F924F925F926F92AD
S11332007F928F929F92AF92BF92CF92DF92EF9272
S1133210FF920F931F93CF93DF93CDB7DEB7CF5AAF
S1133220D0400FB6F894DEBF0FBECDBFC255DF4FFE
S113323099838883CE5AD0404B01E42E3901302E35
S11332402CE4C22ED12CCC0EDD1E80E3F6011192AB
S11332508A95E9F7FF24E0910E06F0910F0664A524
S11332607727A701461B570B4F5F5F4F680D791DEA
S1133270615070405E010894A11CB11CC5010E94FC
S11332805333E0910E06F0910F0684A59927AC0103
S11332904E195F09485E5F4FEA0CFB1CE81AF90AF5
S11332A060E070E0C70101960E945C339AE1492E08
S11332B0512C4C0E5D1EE0910E06F0910F0644A5B4
S11332C055274F5F5F4FB401C2010E945333E09111
S11332D00E06F0910F0684A5992748E150E0481B9B
S11332E0590B840D951D60E070E001960E945C33DB
S11332F0802E99248E010D5C1F4FA401B301C801D7
S11333000E94533349E150E04819590960E070E0E4
S1133310C801880D991D0E945C33E0910E06F0915E
S11333200F0623A5AF01B501C6010E940307E09172
S11333300E06F0910F0684A5C80ED11C0894C11C7A
S1133340D11C8CE7E82EF12CEC0EFD1E23A5A80160
S1133350B601C7010E940307E0910E06F0910F0623
S113336084A5992741E350E0481B590B8E0D9F1DFE
S113337060E070E001960E945C33E0910E06F091EB
S11333800F0644A54F5FB701C2010E94980297FF40
S11333900AC0E0910E06F0910F0684A5FE01E80F25
S11333A0F11D81E0838FE0910E06F0910F0624A5B4
S11333B02E5FA701B201C20104C0232DA701B801E9
S11333C0C8010E94B902B3E3EB2EF12CEC0EFD1EF2
S11333D08E01065E1F4F432DB701C8010E9498025B
S11333E097FFEBCFA401B801C255DF4F88819981C3
S11333F0CE5AD0400E945333C155DF4F0FB6F894D4
S1133400DEBF0FBECDBFDF91CF911F910F91FF9013
S1133410EF90DF90CF90BF90AF909F908F907F9070
S11334206F905F904F903F9008952F923F924F92EC
S11334305F926F927F928F929F92BF92CF92DF9210
S1133440EF92FF920F931F93CF93DF93CDB7DEB725
S1133450C455D0400FB6F894DEBF0FBECDBF1C01DB
S11334607B01BA013901B02E402E5524A201CE01B0
S113347001960E945333A201B301CE0146960E94E5
S11334805333A201B701CE018B960E945333602FB0
S1133490CE01805C9F4F0E944E029AC0BB2021F057
S11334A0898180FD11C0A6C020E041E0B801C801B7
S11334B00E94DA02CE018B962B2D41E0BC0186C01E
S11334C08E01055D1F4F10C08E8980FD18C02B2D05
S11334D041E0B701C7010E94DA028E01005C1F4F70
S11334E0F801808180FF06C02B2DA301B801C8011B
S11334F00E94E2062B2D41E0B801C80167C05BE2DF
S1133500852E912C8C0E9D1E40E4C42ED12CCC0E05
S1133510DD1E121613066CF52B2DA701B801C80188
S11335200E94B9022B2D41E0B801C8010E94DA02C1
S11335304B2DB601C4010E94980297FF06C02B2DA3
S1133540A301B401C4010E94E2062B2DA601B4011B
S1133550C4010E94B9028BA580FF06C02B2DA301D4
S1133560B401C4010E94E2062B2D41E0B401C40160
S11335702DC02B2DA801B701C7010E94B9022B2D24
S113358041E0B701C7010E94DA024B2DB401C60124
S11335900E94980297FF06C02B2DA301B601C60115
S11335A00E94E2062B2DA401B601C6010E94B902B5
S11335B0F601808180FF06C02B2DA301B601C60150
S11335C00E94E2062B2D41E0B601C6010E94DA02F8
S11335D036E1E32EF12CEC0EFD1E4B2DB7018E01CE
S11335E00F5F1F4FC8010E9498029C01892B09F0AC
S11335F055CF0AC02B2D41E0B801C8010E94DA0260
S11336008BA580FF57CF5CCFA201BE01655D7F4FC4
S1133610C1010E945333CC5ADF4F0FB6F894DEBF7A
S11336200FBECDBFDF91CF911F910F91FF90EF900F
S1133630DF90CF90BF909F908F907F906F905F901E
S11336404F903F902F900895AF92BF92CF92DF9208
S1133650EF92FF920F93CF93DF93CDB7DEB76597C9
S11336600FB6F894DEBF0FBECDBF5C017901202FE9
S11336706E010894C11CD11CC6010E94E206882375
S113368039F4402FB701C6010E94980297FD07C084
S1133690202FA701B601C5010E94B90206C0402F20
S11336A05527B601C5010E94533365960FB6F894A9
S11336B0DEBF0FBECDBFDF91CF910F91FF90EF9092
S11336C0DF90CF90BF90AF900895AF92BF92CF920A
S11336D0DF92EF92FF920F93CF93DF93CDB7DEB7D4
S11336E065970FB6F894DEBF0FBECDBF5C016901CC
S11336F0202F7E010894E11CF11CC7010E94B9022D
S1133700882339F0202FA601B701C5010E94E206E3
S113371006C0402F5527B701C5010E945333659653
S11337200FB6F894DEBF0FBECDBFDF91CF910F91DE
S1133730FF90EF90DF90CF90BF90AF9008954F929D
S11337405F926F927F928F929F92AF92BF92CF922D
S1133750DF92EF92FF920F931F93CF93DF93CDB736
S1133760DEB7C455D0400FB6F894DEBF0FBECDBF50
S11337702C0149013801AE2C1AA619A6FE01EC5AF7
S1133780FF4F1082FE01ED5AFF4F108224E1CE015B
S113379001960E940307E8E2BE2E2BC04B2D55274D
S11337A07BE2E72EF12CEC0EFD1E60E070E0C70119
S11337B00E945C330B2D0451202FA301B601C701D5
S11337C00E943206B82E1127A80160E070E0C601FD
S11337D00E945C3384E18B1510F025E102C02B2D8F
S11337E02F5FCE010196AC01BE01655D7F4F0E9443
S11337F0E20665E1C62ED12CCC0EDD1E64E1C601C5
S11338000E942A03892B51F206C02A2DA401B80173
S1133810C8010E94B9024A2DB4018E010F5F1F4FE7
S1133820C8010E949802181619067CF34A2D5527E0
S1133830B801C2010E945333CC5ADF4F0FB6F8943B
S1133840DEBF0FBECDBFDF91CF911F910F91FF90CF
S1133850EF90DF90CF90BF90AF909F908F907F902C
S11338606F905F904F9008954F925F926F927F9206
S11338708F929F92AF92BF92CF92DF92EF92FF927C
S11338800F931F93CF93DF93CDB7DEB7C455D040CA
S11338900FB6F894DEBF0FBECDBF2C014A0139012B
S11338A0A02E1AA619A6FE01EC5AFF4F1082FE01A3
S11338B0ED5AFF4F108244E1CE0101960E943C0371
S11338C0B8E2BB2E2BC04B2D5527ABE2EA2EF12CD0
S11338D0EC0EFD1E60E070E0C7010E945C330B2D0E
S11338E00451202FA301B601C7010E943206B82E4D
S11338F01127A80160E070E0C6010E945C3384E1F6
S11339008B1510F025E102C02B2D2F5FCE010196FF
S1133910AC01BE01655D7F4F0E94E206F5E1CF2E4A
S1133920D12CCC0EDD1E64E1C6010E942A03892B32
S113393051F206C02A2DA401B801C8010E94B9029F
S11339404A2DB4018E010F5F1F4FC8010E949802D7
S1133950181619067CF34A2D5527B801C2010E9496
S11339605333CC5ADF4F0FB6F894DEBF0FBECDBF32
S1133970DF91CF911F910F91FF90EF90DF90CF9047
S1133980BF90AF909F908F907F906F905F904F907B
S11339900895DC01FB0125E101900D922150E1F72E
S11339A0DC015596FB01759685E101900D928150DD
S11339B0E1F708951F920F920FB60F9211248F937F
S11339C083B783BF00B600FCFDCF8F910F900FBE6D
S11339D00F901F901895DF92EF92FF920F931F9311
S11339E0CF93DF938C0165E186EE91E00E94D509C7
S11339F0D82E65E186EE91E00E942D02E82E48C0A3
S1133A000E94F809F801EF0DF11D8083FC2E219628
S1133A104E2D5527CA010196C817D90789F78E2D4F
S1133A2005C0F801E80FF11D10828F5F8531C8F3DE
S1133A302D2D33272770307021153105D1F0F80171
S1133A40E40FF51F319788E090E0821B930B2FEF72
S1133A5030E002C0359527958A95E2F7808182236C
S1133A60808307C025E146EE51E0B801C8010E94F9
S1133A70B90245E166EE71E0C8010E949802181689
S1133A80190684F365E1C8010E942A03019719F419
S1133A90C0E0D0E0BBCFDF91CF911F910F91FF9099
S1133AA0EF90DF9008952F923F924F925F926F9222
S1133AB07F928F929F92AF92BF92CF92DF92EF92BA
S1133AC0FF920F931F93CF93DF93CDB7DEB7C65505
S1133AD0D0400FB6F894DEBF0FBECDBF67969FAF40
S1133AE08EAF67971B013A01290165E1C9010E9464
S1133AF02A03892B29F065E1C1010E944E0220C2EC
S1133B00C2010E9495098823E1F105E12AE731E029
S1133B1045E651E0B3017E010894E11CF11CC701A4
S1133B200E94341C25E141E0B701CE0146960E9473
S1133B30580207C025E145E651E0B501C5010E94E0
S1133B40B90216E1A12EB12CAC0EBD1E45E165E60D
S1133B5071E0C5010E949802181619065CF305E18C
S1133B6025E631E0A5017E010894E11CF11CB701B2
S1133B70C7010E94241B25E631E04FE851E0B7015C
S1133B80E4C08091B901882309F453C0B6E1CB2E77
S1133B90D12CCC0EDD1E05E12AE731E045E651E0EB
S1133BA0B201C6010E94341C25E631E0A601B3012E
S1133BB05E010894A11CB11CC5010E94241BABE248
S1133BC08A2E912C8C0E9D1E25E631E0A601B301B0
S1133BD0C4010E94651BF5E1EF2E0AE711E025E61A
S1133BE031E0A401B501C6010E949F1B25E141E01B
S1133BF0B601C5010E94580207C025E145E651E01F
S1133C00B501C5010E94B90245E165E671E05E01B6
S1133C100894A11CB11CC5010E949802181619062B
S1133C2064F3CE01469605E125E631E0AC01B50129
S1133C308DC08091BA015E010894A11CB11CE6E11B
S1133C40EE2EF12CEC0EFD1E882369F105E12AE726
S1133C5031E045E651E0B301C5010E94341C25E181
S1133C6041E0B501C7010E94580207C025E145E6BD
S1133C7051E0B501C5010E94B90276E1A72EB12C2D
S1133C80AC0EBD1E45E165E671E0C5010E949802D7
S1133C90181619065CF305E125E631E0A501BE011D
S1133CA06F5F7F4F52C005E12AE731E045E651E0FE
S1133CB0B301C5010E94341C25E141E0B501C701EF
S1133CC00E94580207C025E145E651E0B501C5014F
S1133CD00E94B90266E1A62EB12CAC0EBD1E45E1D0
S1133CE065E671E0C5010E949802181619065CF396
S1133CF005E125E631E0A5016E010894C11CD11C43
S1133D00B601C6010E94241B2AE731E045E651E0D2
S1133D10B201C5010E94341C2AE731E045E651E0B6
S1133D20B501C5010E94341C55E1E52E0AE711E0F6
S1133D3025E631E04FE851E0B501C5010E949F1B23
S1133D4005E125E631E0A601B501C5010E94241B69
S1133D50C2010E9495095E010894A11CB11CB30123
S1133D606B5E7F4F882341F0D501FB0185E1019013
S1133D700D92815059F0FBCF45E1E42E0AE711E0A2
S1133D8025E631E0A201C5010E949F1B25E141E027
S1133D90BE016F5F7F4FC1010E94580207C025E139
S1133DA045E651E0B101C1010E94B90245E165E671
S1133DB071E0C1010E9498021816190684F3B30138
S1133DC06B5E7F4F30E4A32EB12CAC0EBD1E05E11B
S1133DD02AE731E045E651E0C5010E94341C2BE29C
S1133DE0C22ED12CCC0EDD1E95E1E92E0AE711E09E
S1133DF025E631E0A501B301C6010E949F1B25E120
S1133E0042E0B601C6010E94580207C025E145E61A
S1133E1051E0B801C8010E94B9028E01055D1F4F2F
S1133E2045E165E671E0C8010E949802181619067A
S1133E306CF325E141E0B801CE0101960E945802DD
S1133E4007C025E145E651E0B501C5010E94B9026C
S1133E5045E165E671E05E010894A11CB11CC50151
S1133E600E9498021816190664F305E12AE731E066
S1133E7045E651E0BE016A5E7F4F67968EAD9FAD09
S1133E8067970E94341C25E631E0A50167966EAD64
S1133E907FAD6797CB010E94651B80E4E82EF12C6F
S1133EA0EC0EFD1E2AE731E045E651E0B701C501FD
S1133EB00E94341C25E143E0B501C7010E94580269
S1133EC007C025E145E651E0B501C5010E94B902EC
S1133ED000E4A02EB12CAC0EBD1E45E165E671E0F8
S1133EE0C5010E949802181619065CF305E125E63F
S1133EF031E067964EAD5FAD6797BE01655D7F4F5C
S1133F006E010894C11CD11CC6010E94651B15E1F9
S1133F10E12E0AE711E025E631E0A601BE016A5E62
S1133F207F4FC6010E949F1B05E125E631E0A501F4
S1133F30B60167968EAD9FAD679745960E94651B47
S1133F40CA5ADF4F0FB6F894DEBF0FBECDBFDF9164
S1133F50CF911F910F91FF90EF90DF90CF90BF9082
S1133F60AF909F908F907F906F905F904F903F9015
S1133F702F9008952F923F924F925F926F927F926B
S1133F808F929F92AF92BF92CF92DF92EF92FF9265
S1133F900F931F93CF93DF93CDB7DEB7CD56D040A9
S1133FA00FB6F894DEBF0FBECDBF3C016B01AE96D9
S1133FB05FAF4EAFAE971901480165E1C8010E9499
S1133FC02A03892BB9F065E1C80145960E942A03AA
S1133FD0892B81F0AE966EAD7FADAE97C3010E9482
S1133FE0C91CD601F10185E101900D92815009F4BB
S1133FF013C1FACF65E1C1010E942A03892B61F044
S1134000B401C3010E94C91C65E1C6010E944E02AD
S113401081E0F601808300C105E12AE731E045E64D
S113402051E0B1015E010894A11CB11CC5010E94BC
S1134030341C66E1462E512C4C0E5D1E55E1E52ED6
S11340400AE711E025E631E0A101B501C2010E94B1
S11340509F1B25E631E0A401B501C5010E949F1B09
S1134060A4014B5E5F4F25E631E0B201C2010E941C
S11340709F1B05E125E631E0AE964EAD5FADAE97F0
S1134080B501C5010E94651BAE968EAD9FADAE977E
S11340904596AC969FAF8EAFAC9725E631E0AC0168
S11340A0B201C2010E94651B65E1C5010E942A0399
S11340B0892BF1F065E1C2010E942A03892B89F062
S11340C08E010B5A1F4F65E1C8010E944E0281E028
S11340D0F80180839801A401B601C3010E94531D15
S11340E09BC065E1C6010E944E02F601108294C095
S11340F045E1E42E0AE711E025E631E0A501B1012E
S1134100C6010E949F1B3BE2C32ED12CCC0EDD1EA8
S113411005E12AE731E045E651E0B501C6010E9418
S1134120341C0AE711E025E631E0A501B601CE0111
S1134130805C9F4F0E949F1B25E631E0AE964EADFA
S11341405FADAE97B601C6010E949F1B25E141E019
S1134150B601C5010E94580207C025E145E651E0B9
S1134160B701C7010E94B90245E165E671E07E012D
S11341700894E11CF11CC7010E9498021816190644
S113418064F326E1822E912C8C0E9D1E05E12AE714
S113419031E045E651E0B401C3010E94341C25E638
S11341A031E0A701B301C3010E94651B90E4A92E6D
S11341B0B12CAC0EBD1E25E631E0A501B301C3014F
S11341C00E94651B8BE2C82ED12CCC0EDD1E25E689
S11341D031E0A301B601C6010E94651B05E1E02E92
S11341E00AE711E025E631E0A401B601C6010E9408
S11341F09F1B25E631E0AC964EAD5FADAC97B501A3
S1134200C5010E949F1B05E125E631E0A501B60129
S1134210C30145960E94651BC359DF4F0FB6F8943E
S1134220DEBF0FBECDBFDF91CF911F910F91FF90E5
S1134230EF90DF90CF90BF90AF909F908F907F9042
S11342406F905F904F903F902F9008957F928F9240
S11342509F92AF92BF92CF92DF92EF92FF920F9311
S11342601F93CF93DF93CDB7DEB7C455D0400FB6BD
S1134270F894DEBF0FBECDBF5C017B018A010E94B2
S11342801C0365E16E010894C11CD11CC6010E9487
S11342904E02A6E18A2E912C8C0E9D1E65E1C4016E
S11342A00E944E0265E1CE018B960E944E02F1E01F
S11342B07F2E7E8A7BA69401A701B601C5010E94C8
S11342C0BA1FC6010E9495098823A1F5E0E4EE2EE9
S11342D0F12CEC0EFD1E65E1C7010E944E02F701B0
S11342E0708205E125E631E0A601B701C4010E9410
S11342F0151A75E1E72E0AE711E025E631E0A4017D
S1134300B401C6010E949F1B25E631E0A601B50158
S1134310C5010E949F1B25E631E0A401B601C60138
S11343200E949F1BC501459625E631E0A601BC010C
S11343300E949F1BCC5ADF4F0FB6F894DEBF0FBE0E
S1134340CDBFDF91CF911F910F91FF90EF90DF9040
S1134350CF90BF90AF909F908F907F900895CF9310
S1134360DF93109279018FEF809378018093770126
S11343708093760180937501809374018093730117
S113438080937201809371018093700180936F0117
S113439080936E0180936D0180936C0180936B0117
S11343A080936A01809369012FE7209368018093C9
S11343B067018093660180936501EAE7F1E095E186
S11343C0DF011D929A95E9F741E040937A0190E864
S11343D090937D011092A3018093A2018093A10187
S11343E08093A00180939F0180939E0180939D01FF
S11343F080939C0180939B0180939A0180939901FF
S113440080939801809397018093960180939501FE
S1134410809394018093930120939201809391015E
S1134420809390012CEF20938F014093B901109257
S1134430BA011092B8018CE18093B70187E98093A7
S1134440B6018EEB8093B5012093B40184E580938B
S1134450B3018DEB8093B2017AE77093B1015BE80D
S11344605093B00195E69093AF018CEA8093AE012E
S113447088EF8093AD018FE98093AC0181E880934C
S1134480AB0184ED8093AA018093A9018DEA809306
S1134490A80165EC6093A7019093A6018AEF80932D
S11344A0A50185E48093A4011092D0018AE480934D
S11344B0CF0186E98093CE0185EB8093CD0198E608
S11344C09093CC018EE88093CB0185EF8093CA0151
S11344D083E78093C90138E23093C80186E480936E
S11344E0C70184E68093C60189E68093C50189E803
S11344F08093C4019093C30183EC8093C2015093D1
S1134500C10189EB8093C00183E18093BF018BECEF
S11345108093BE012093BD0182E88093BC01109278
S1134520E50123E22093E40186EA8093E3013093DA
S1134530E20185E58093E10181E38093E0019093BA
S1134540DF0184E98093DE018DE78093DD0189E555
S11345508093DC018CED8093DB0189EC8093DA019C
S113456082E18093D90184E08093D8012093D7011C
S113457081E58093D60187E38093D5017093D401BC
S11345806093D3018BEF8093D20182E38093D101B6
S11345904093FA011092F9011092F8011092F70178
S11345A01092F6011092F5011092F4011092F301A9
S11345B01092F2011092F1014093F00184EF809384
S11345C0EF0188EC8093EE0189EF8093ED0187E29F
S11345D08093EC018EEA8093EB0183ED8093EA01F2
S11345E08AEC8093E90185E78093E80182E2809375
S11345F0E70187E58093E6014FE159E065E1CF01EA
S113460045970E945816AAE7B6E0ECEBF1E085E185
S113461001900D928150E1F7AFE8B6E0E1EDF1E0F1
S113462085E101900D928150E1F7C4EAD6E0BE0124
S11346306A5270404CEB51E0CE010E942621AA96AA
S1134640B8E0C03FDB0799F78FE080935D0180EF0E
S113465080935E01DF91CF910895CF93DF93109201
S1134660330110921A0910921B0910921C0910921E
S11346701D09A6E4B6E084E3ED0119928A95E9F7F1
S113468085E1E0EFF8E0982F11929A95E9F7ECE4D0
S1134690F9E0EF01982F19929A95E9F77596982FFA
S11346A011929A95E9F7E8E3F1E0982F11929A951F
S11346B0E9F7ECE1F1E011928A95E9F7ED010E9446
S11346C0F8098993E6E0CA37DE07C9F70E94AF21EB
S11346D080EF98E00E94EB1C84E18093070224E1C0
S11346E040EF58E064E188E092E00E94AB092AE1DF
S11346F04BEF51E061E070E08CE00E94AB01DF9190
S1134700CF910895EF92FF920F931F93E0911105BB
S1134710E1FF33C02091090530910A0540910B0552
S113472050910C05E0900D05F0900E0500910F05D9
S113473010911005621B730B840B950B6E157F058E
S113474080079107D0F0E0FF04C0ED7FE0931105EE
S11347500CC02E0D3F1D401F511F2093090530939F
S11347600A0540930B0550930C0581E090E090936B
S11347708109809380090E942D2381E00E947001A9
S11347801F910F91FF90EF900895AF92BF92CF9237
S1134790DF92EF92FF920F931F93CF93DF938C01DD
S11347A00E94AF2185E691E090933201809331011C
S11347B0A3E8B2E0F80185E101900D928150E1F7A0
S11347C0A8E9B2E0F801759685E101900D92815057
S11347D0E1F7CDEAD2E0BE016A527040A801CE01F1
S11347E00E942621AA9663E0C130D60709F470C05E
S11347F0F2CFE114F104F1F4209749F5E09131018D
S1134800F0913201A1E0B3E0E95AFF4F85E1019054
S11348100D928150E1F7E0913101F0913201A6E16E
S1134820B3E0E459FF4F85E101900D92815009F402
S11348305DC0FACF209759F4409131015091320173
S1134840495A5F4FB501C8010E9426214FC02AE290
S113485030E0C29FA001C39F500DD29F500D112480
S1134860475A5D4FC6018C0F9D1FBC01629FC0015A
S1134870639F900D729F900D1124B8018F5F9C4F20
S11348800E9426212196C430D10508F4B2CF0894A1
S1134890E11CF11C84E090E0C80ED91E08551F4F9E
S11348A093E0E916F104C9F420E030E0EEE0F9E029
S11348B043E050E0CA01022E02C0880F991F0A94F7
S11348C0E2F781932E5F3F4F2830310591F0F2CF0C
S11348D08E01EE24FF24CC24DD24B8E5AB2EBFEFFB
S11348E0BB2EA00EB11EC0E0D0E083CFC1E0D0E06B
S11348F080CF809131019091320142E156E065E12F
S11349008F579F4F0E94581680E090E0DF91CF911F
S11349101F910F91FF90EF90DF90CF90BF90AF90D9
S113492008952F923F924F925F926F927F928F924F
S11349309F92AF92BF92CF92DF92EF92FF920F932A
S11349401F93CF93DF93CDB7DEB7CD59D0400FB6C9
S1134950F894DEBF0FBECDBF4C018B01C656DF4FAE
S113496059834883CA59D0400E941C0365E1CE0193
S113497001960E944E0265E1CE0146960E944E02C7
S113498081E08E8B65E1C8010E942D021C01089410
S1134990210831082801480E591E5AC281E090E0CE
S11349A0CA56DF4F99838883C659D040E4E0F0E0CB
S11349B0CC56DF4FF983E883C459D0408EE591E0AB
S11349C0C456DF4F99838883CC59D04065E1CE012A
S11349D001960E942A03892B09F0DAC165E1662E4B
S11349E0712C680C791C25E141E0B301C3010E94DC
S11349F0580207C025E145E651E0B301C3010E9416
S1134A00B90245E165E671E0C3010E9498021816F7
S1134A10190684F35BE2E52EF12CEC0EFD1E05E194
S1134A202AE731E045E651E0BE016F5F7F4FC701E1
S1134A300E94341C2AE731E045E651E0B701C70182
S1134A400E94341CC856DF4F19821882C859D040BE
S1134A508091B9018823F1F140E4E42EF12CEC0EAD
S1134A60FD1E05E12AE731E045E651E0B401C70146
S1134A700E94341C25E631E0AE01455D5F4FB7016D
S1134A80C7010E94651B25E141E0B701CE018659AB
S1134A909F4F0E94580207C025E145E651E0B50149
S1134AA0C5010E94B9023AE6A32EB12CAC0EBD1E7C
S1134AB045E165E671E0C5010E94980218161906E1
S1134AC05CF3CE01805C9F4F05E125E631E0A50152
S1134AD0BC0180C08091BA0120E4E22EF12CEC0EDE
S1134AE0FD1E9AE6A92EB12CAC0EBD1E882361F1E1
S1134AF005E12AE731E045E651E0B401C5010E9431
S1134B00341C25E141E0B501C7010E94580207C0E9
S1134B1025E145E651E0B501C5010E94B90200E472
S1134B20A02EB12CAC0EBD1E45E165E671E0C501B9
S1134B300E949802181619065CF305E125E631E097
S1134B40AE0146595F4F44C005E12AE731E045E62E
S1134B5051E0B401C5010E94341C25E141E0B501D6
S1134B60C7010E94580207C025E145E651E0B5019E
S1134B70C5010E94B90210E4A12EB12CAC0EBD1ED9
S1134B8045E165E671E0C5010E9498021816190610
S1134B905CF3BAE6CB2ED12CCC0EDD1E05E125E666
S1134BA031E0A601B501C5010E94241BA5E1EA2E4E
S1134BB00AE711E025E631E0AE01455D5F4F6FE89D
S1134BC071E0C6010E949F1B05E125E631E0A601C4
S1134BD0B501C5010E94241BFFE7CF2ED12CCC0EBA
S1134BE0DD1E05E12AE731E045E651E0B301C601E7
S1134BF00E94341CE5E5AE2EB12CAC0EBD1E75E151
S1134C00E72E0AE711E025E631E0A601B401C5016B
S1134C100E949F1B05E12AE731E045E651E0BE0111
S1134C20605C7F4FC4010E94341C25E141E0B50162
S1134C30CE0186599F4F0E94580207C025E145E6E0
S1134C4051E0B501C5010E94B9026AE6A62EB12C55
S1134C50AC0EBD1E45E165E671E0C5010E949802F7
S1134C60181619065CF305E125E631E0A501B40147
S1134C70C4010E94651B55E1E52E0AE711E025E613
S1134C8031E0A301CE010196BC010E949F1B4FE7B6
S1134C90A42EB12CAC0EBD1E05E12AE731E045E699
S1134CA051E0B501C5010E94341CC856DF4FE881AC
S1134CB0F981C859D040339754F4CE018B960AE752
S1134CC011E025E631E0A501BC010E949F1BCE0145
S1134CD0805C9F4F25E141E0BC010E94580207C05F
S1134CE025E145E651E0B501C5010E94B90230E471
S1134CF0A32EB12CAC0EBD1E45E165E671E0C501E5
S1134D000E949802181619065CF325E5C22ED12CD0
S1134D10CC0EDD1E05E125E631E0A401B601C60195
S1134D200E94651B95E1E92E0AE711E025E631E0D2
S1134D30A601B501C5010E949F1B05E125E631E0EE
S1134D40AE0141585F4FB501C3010E94651BC856AF
S1134D50DF4F88819981C859D0400196C856DF4FEA
S1134D6099838883C859D040049709F071CEF4011F
S1134D70858980FF07C025E145E651E0B301C30101
S1134D800E94E20625E141E0B301C3010E94DA0278
S1134D90C456DF4FE881F981CC59D0400081F2013B
S1134DA08081082309F11127CC56DF4F0880C459AC
S1134DB0D04002C0159507950A94E2F78AE2089F4D
S1134DC080011124C656DF4F88819981CA59D04089
S1134DD0080F191F0A521040BE016F5F7F4F9B01DD
S1134DE0A401C4010E94BA1FCA56DF4FE881F981A9
S1134DF0C659D0403197CA56DF4FF983E883C65964
S1134E00D040C456DF4F88819981CC59D040019756
S1134E10C456DF4F99838883CC59D040CC56DF4F9A
S1134E20E881F981C459D0403497CC56DF4FF983D7
S1134E30E883C459D040CA56DF4F88819981C65946
S1134E40D0408F5F9F4F09F0C1CD089421083108ED
S1134E5008944108510837FEA1CD5E010894A11CB5
S1134E60B11CC5010E9495098823C9F58BE2E82E7F
S1134E70F12CEC0EFD1E65E1C7010E944E0281E09B
S1134E808BA706E1C02ED12CCC0EDD1E05E125E654
S1134E9031E0A501B701C6010E94151A15E1E12E02
S1134EA00AE711E025E631E0A601B601C5010E943A
S1134EB09F1B25E631E0A501B401C4010E949F1B9C
S1134EC025E631E0A601B501C5010E949F1BC4017E
S1134ED0459625E631E0A501BC010E949F1BC356FF
S1134EE0DF4F0FB6F894DEBF0FBECDBFDF91CF9179
S1134EF01F910F91FF90EF90DF90CF90BF90AF90F4
S1134F009F908F907F906F905F904F903F902F90E5
S1134F1008952F923F924F925F926F927F928F9259
S1134F209F92AF92BF92CF92DF92EF92FF920F9334
S1134F301F93CF93DF93CDB7DEB7CF51D1400FB6D8
S1134F40F894DEBF0FBECDBFC25EDE4F9983888367
S1134F50CE51D140662E4A012901180182E196E022
S1134F6090930F0680930E0689E2E82EF12CEC0E46
S1134F70FD1EC7010E94EB1C65E1C7010E942A03C4
S1134F80019791F38FE199E090930F0680930E06B9
S1134F908E010E561F4F4AE756E0B701C8010E9422
S1134FA0912482E196E090930F0680930E06F4011B
S1134FB0D80185E10D9001928150E1F70091310112
S1134FC0109132010F571F4F06C025E1A801B4010B
S1134FD0C4010E94B90245E1B801C4010E949802CB
S1134FE01816190694F365E1C4010E942A03019777
S1134FF009F4BACFE0903101F090320181E890E0F9
S1135000E80EF91E0DE7C02ED12CCC0EDD1E65E195
S1135010C6010E944E0281E0F601808305E19701FA
S1135020AE01475D5F4FB601CE01CE960E94151AC0
S11350307E010894E11CF11C84E1F70111928A9528
S1135040E9F718E6A12EB12CAC0EBD1EB5E17B2EFE
S1135050F501872D11928A95E9F78E0104541F4FAB
S1135060C8010E94170A262D332744275527C25EFC
S1135070DE4F68817981CE51D140C8010E94C00FB2
S1135080B701C8010E945510A5E1CA2ED12CCC0E3F
S1135090DD1E24E1A70164E1C6010E943C1164E124
S11350A0C6010E94D509182F8091310190913201D7
S11350B065E18F579F4F0E94D509811768F42091AD
S11350C03101309132012F573F4F05E144E1B601E0
S11350D0C5010E94FC1827C0F50111927A94E9F7E2
S11350E0D501F60194E101900D929150E1F7181762
S11350F0D1F400913101109132010F571F4F06C0B6
S113510025E1A801B701C7010E94B902F8E6EF2E14
S1135110F12CEC0EFD1E45E1B801C7010E94980276
S1135120181619066CF320913101309132012F5772
S11351303F4FE9E2CE2ED12CCC0EDD1E05E1A401B9
S1135140B101C6010E940918209131013091320148
S11351502F573F4F73E5E72EF12CEC0EFD1EA601F1
S1135160BE0168597F4FC7010E94241B2091310161
S1135170309132012F573F4FA701BE01625C7F4F30
S1135180C2010E94091865E1C2010E942A03019725
S113519009F4EACEC15EDE4F0FB6F894DEBF0FBE4F
S11351A0CDBFDF91CF911F910F91FF90EF90DF90D2
S11351B0CF90BF90AF909F908F907F906F905F90B3
S11351C04F903F902F9008952F923F924F925F926D
S11351D06F927F928F929F92AF92BF92CF92DF9203
S11351E0EF92FF920F931F93CF93DF93CDB7DEB768
S11351F0CF5CD1400FB6F894DEBF0FBECDBF5C01CB
S1135200762EC253DE4F59834883CE5CD140490188
S113521060913101709132016F577F4F45E1C25364
S1135220DE4F88819981CE5CD1400E94980297FD1F
S113523003C083E090E0EAC465E1C253DE4F888195
S11352409981CE5CD1400E942A03019719F484E02D
S113525090E0DCC460913101709132016F577F4F4F
S113526045E1C4010E94980297FD03C085E090E0E7
S1135270CDC465E1C4010E942A03019719F486E0B4
S113528090E0C4C482E196E090930F0680930E06EA
S1135290E0903101F090320121E830E0E20EF31E9B
S11352A03DE7C32ED12CCC0EDD1E65E1C6010E9464
S11352B04E0281E0F601808305E19701A401B60165
S11352C0CE0189960E94151A7E010894E11CF11CF6
S11352D084E1F70111928A95E9F728E6C22ED12CD0
S11352E0CC0EDD1E85E1F60111928A95E9F78E0157
S11352F00C591E4FC8010E94170A272D3327442733
S11353005527B501C8010E94C00FB701C8010E940A
S1135310551095E1892E912C8C0E9D1E24E1A70138
S113532064E1C4010E943C1164E1C4010E94D509F6
S1135330182F809131019091320165E18F579F4F71
S11353400E94D509811768F420913101309132010E
S11353502F573F4F05E144E1B401C6010E94FC18F8
S113536023C0D601F40194E101900D929150E1F72C
S11353701817D1F400913101109132010F571F4FCA
S113538006C025E1A801B701C7010E94B90288E659
S1135390E82EF12CEC0EFD1E45E1B801C7010E9478
S11353A09802181619066CF32091310130913201DC
S11353B02F573F4F09E2E02EF12CEC0EFD1E1EE3A9
S11353C0A12EB12CAC0EBD1E05E1A701BE0168598A
S11353D07F4FC5010E94091820913101309132019B
S11353E02F573F4FB3E5CB2ED12CCC0EDD1EA7019A
S11353F0C253DE4F68817981CE5CD140C6010E94E0
S113540009188FE199E090930F0680930E068E01A0
S1135410065C1E4F65E1C8010E944E0265E1C801A9
S113542045960E944E0265E1CE0183589F4F0E942B
S11354304E028E010E561F4F65E1C8010E944E02B6
S113544081E0F801808365E1C5010E942D028C0191
S113545065E1C6010E942D02801791070CF4C80172
S11354609C0121503040C453DE4F39832883CC5CE7
S1135470D140A80EB91EF5013197C853DE4FF98308
S1135480E883C85CD140C80ED91E9601C9C281E028
S113549090E0BCC3BE0163587F4FCE01865C9E4F33
S11354A09B01AC010E94531D1F5F123099F7C85332
S11354B0DE4FE881F981C85CD1404081CA53DE4F98
S11354C0E881F981C65CD14090812220D9F0F101B4
S11354D0E25FF64F808148235527C653DE4F08808C
S11354E0CA5CD14002C0559547950A94E2F78923D6
S11354F099279101220F331F02C0959587952A950C
S1135500E2F706C080910E094823440F440F892313
S1135510482B09F44EC28AE2489F3001112429E540
S113552032E0620E731EFDE7EF2EF12CEC0EFD1E31
S113553065E1C7010E942A03E2E9CE2ED12CCC0EEC
S1135540DD1E892B79F0B301CE01865C9E4F0E944B
S1135550C91CD701F60185E101900D92815009F42F
S113556028C2FACF65E1C6010E942A038E01065CB7
S11355701E4F892B29F0B801C8010E94C91C19C209
S113558045E1B301C8010E949802892B09F035C393
S1135590B3016B5E7F4F45E1C80145960E949802B6
S11355A0892B09F02AC39701A801B701C801E3C0F8
S11355B0DE01A454BF4FFE01E65CFE4F85E101907D
S11355C00D928150E1F7DE01AF52BF4FFE01E15B66
S11355D0FE4F85E101900D928150D9F1FBCF72E924
S11355E0872E912C8C0E9D1E67EAA62EB12CAC0E34
S11355F0BD1E05E12AE731E045E651E0B401C501ED
S11356000E94341C5AE3C52E51E0D52ECC0EDD1E6B
S113561045E1E42E0AE711E025E631E0A501B601F3
S1135620CE0184549F4F0E949F1B25E631E0A401C4
S1135630B501C5010E949F1B85E190E0C80ED91EEB
S113564025E631E0A501B601CE018F529F4F0E949D
S11356509F1B3DE7832E912C8C0E9D1EC4010E943E
S1135660950926EEA22EB12CAC0EBD1E882391F016
S1135670D501F30185E101900D928150E1F7DE013E
S1135680A550BF4FF301759685E101900D928150AD
S113569071F1FBCF97EAC92ED12CCC0EDD1E05E1AA
S11356A02AE731E045E651E0B401C6010E94341C0A
S11356B085E1E82E0AE711E025E631E0A601B30111
S11356C0C5010E949F1B25E631E0A401B601C60175
S11356D00E949F1BE5E1F0E06E0E7F1E25E631E09F
S11356E0A601B301CE0185509F4F0E949F1B06EE79
S11356F0402E512C4C0E5D1E1CEB812E912C8C0ED9
S11357009D1EB0E16B2EB1E07B2E6C0E7D1E05E17B
S113571025E631E0A201B401C3010E94651BABEF91
S1135720AA2EB12CAC0EBD1EF1EDEF2EF12CEC0E19
S1135730FD1EE5E2CE2EE1E0DE2ECC0EDD1E25E6DA
S113574031E0A501B701C6010E94651B65E1C301F3
S11357500E942A03892BB9F065E1C6010E942A033D
S1135760FE01E358FF4F892B49F0CE01865C9E4F22
S11357709F01AC01BF010E94531D1BC165E1CF0114
S11357800E944E0216C105E125E631E0A201B401F2
S1135790C4010E94241B25E631E0A501B701C7011D
S11357A00E94241B8E0103581F4FC8010E949509B3
S11357B0882381F0CE018E569F4F0E94950988233D
S11357C049F0D801F30185E101900D92815009F46B
S11357D046C0FACF7DE7872E912C8C0E9D1EC40106
S11357E00E94950962E9C62ED12CCC0EDD1E8823B9
S11357F051F0DE01A955BF4FF60185E101900D92EC
S11358008150E1F0FBCFC6010E949509FE01E955E4
S1135810FF4F882341F0DF01F40185E101900D92EF
S1135820815061F0FBCF55E1E52E0AE711E025E652
S113583031E0A601B401CF010E949F1B45E1E42E93
S11358400AE711E025E631E0AE01405F5E4FBE019C
S113585069557F4FCE0183589F4F0E949F1B37EAA3
S1135860832E912C8C0E9D1E05E12AE731E045E63E
S113587051E0BE016B5D7E4FC4010E94341C2BEFCE
S1135880C22ED12CCC0EDD1E2AE731E045E651E0D4
S1135890BE01605F7E4FC6010E94341C96EEA92EA5
S11358A0B12CAC0EBD1E85E1E82E0AE711E025E619
S11358B031E0A601BE0164547F4FC5010E949F1BC5
S11358C00AE3E02E01E0F02EEC0EFD1E05E125E6D4
S11358D031E0A501B401C7010E94651B25E141E047
S11358E0B701C4010E94580207C025E145E651E012
S11358F0B401C4010E94B90217EA812E912C8C0EC6
S11359009D1E45E165E671E0C4010E9498021816E7
S113591019065CF305E125E631E0A401BE016A51F4
S11359207F4FC4010E94651BB5E1EB2E0AE711E02D
S113593025E631E0AE014B5D5E4FB401C4010E9427
S11359409F1BA0E1CA2EA1E0DA2ECC0EDD1E25E6B7
S113595031E0A601BE0165507F4FC6010E949F1B26
S1135960FCEBAF2EB12CAC0EBD1E25E631E0A6013A
S1135970BE016F527F4FC5010E949F1B05E125E6C2
S113598031E0A501B401C4010E94651BF4018081CA
S113599080FF07C025E145E651E0B401C4010E943F
S11359A0E20625E141E0B401CE01815B9E4F0E94F5
S11359B0DA02089421083108C653DE4F2881398160
S11359C0CA5CD14022503040C653DE4F398328830D
S11359D0CA5CD1403FEF23163FEF330609F00BC1F9
S11359E0C453DE4F88819981CC5CD1400197C45364
S11359F0DE4F99838883CC5CD140C853DE4FE88165
S1135A00F981C85CD1403197C853DE4FF983E883EC
S1135A10C85CD140CA53DE4F28813981C65CD1406D
S1135A2021503040CA53DE4F39832883C65CD140AD
S1135A30C453DE4F88819981CC5CD14097FFD0C09C
S1135A40FE01E258FF4F8081882369F43196DE011C
S1135A50A358BF4FCD014596E817F907A1F78C91DC
S1135A60813009F45EC0C0903101D0903201E5E28A
S1135A70EE2EE1E0FE2EEC0EFD1E65E1C7010E9454
S1135A804E0281E0F70180837DE7A72EB12CAC0E96
S1135A90BD1E62E9862E912C8C0E9D1E05E1960199
S1135AA0A501B701C4010E94151A2091310130915A
S1135AB0320189010B5E1F4F55E1E52EA401B401AB
S1135AC0C5010E949F1B209131013091320189014F
S1135AD00B5E1F4F4AE3C42E41E0D42ECC0EDD1ED4
S1135AE0A501B601C6010E949F1B2091310130918E
S1135AF0320189010B5E1F4FA401B501C5010E944B
S1135B009F1B209131013091320189010B5E1F4F9F
S1135B1085E190E0C80ED91EA501B601C6010E9418
S1135B209F1B82E196E090930F0680930E063AE362
S1135B30E32E31E0F32EEC0EFD1E65E1C7010E9459
S1135B40D509182F809131019091320165E18F5769
S1135B509F4F0E94D509FE01B996811768F42091E0
S1135B603101309132012F573F4F05E145E1B70133
S1135B70CF010E94FC1823C0DF01F70195E10190D9
S1135B800D929150E1F71817D1F400913101109161
S1135B9032010F571F4F06C025E1A801B701C70105
S1135BA00E94B90229E2E22EF12CEC0EFD1E45E121
S1135BB0B801C7010E949802181619066CF345E152
S1135BC0C253DE4F68817981CE5CD140CE01899683
S1135BD00E949802892B09F45ACC82E090E016C006
S1135BE093E0292E312CE4E0F0E0C653DE4FF98334
S1135BF0E883CA5CD14010E04DCCCE018E569F4F55
S1135C000E949509882309F0D3CCE9CCC153DE4F17
S1135C100FB6F894DEBF0FBECDBFDF91CF911F91B9
S1135C200F91FF90EF90DF90CF90BF90AF909F9037
S1135C308F907F906F905F904F903F902F9008953A
S1135C40BF92CF92DF92EF92FF920F931F93CF9365
S1135C50DF93D82E23E0821709F47EC1281740F081
S1135C6031E0831709F447C0381708F490C010C016
S1135C7045E0841709F4A2C1841708F49BC156E0D7
S1135C80851709F49EC187E0D81609F021C3FFC225
S1135C9080915F01882361F52091130930911409E3
S1135CA04091150950911609EFB7F894FF276091B8
S1135CB04106709142068091430690914406E0901B
S1135CC04F01F090500100915101109152016E0D5D
S1135CD07F1D801F911FEFBF209313093093140978
S1135CE0409315095093160910925F010E943C12CB
